{
  "contractName": "Publications",
  "abi": [
    {
      "inputs": [
        {
          "internalType": "uint256",
          "name": "_price",
          "type": "uint256"
        }
      ],
      "payable": false,
      "stateMutability": "nonpayable",
      "type": "constructor"
    },
    {
      "anonymous": false,
      "inputs": [
        {
          "indexed": true,
          "internalType": "address",
          "name": "_hashSender",
          "type": "address"
        },
        {
          "indexed": false,
          "internalType": "uint256",
          "name": "_hashId",
          "type": "uint256"
        },
        {
          "indexed": false,
          "internalType": "string",
          "name": "_hashContent",
          "type": "string"
        },
        {
          "indexed": false,
          "internalType": "uint256",
          "name": "timestamp",
          "type": "uint256"
        }
      ],
      "name": "NewPaperStored",
      "type": "event"
    },
    {
      "anonymous": false,
      "inputs": [
        {
          "indexed": true,
          "internalType": "address",
          "name": "_hashSender",
          "type": "address"
        },
        {
          "indexed": false,
          "internalType": "uint256",
          "name": "amount",
          "type": "uint256"
        }
      ],
      "name": "Withdrawn",
      "type": "event"
    },
    {
      "constant": true,
      "inputs": [],
      "name": "lastPaperId",
      "outputs": [
        {
          "internalType": "uint256",
          "name": "",
          "type": "uint256"
        }
      ],
      "payable": false,
      "stateMutability": "view",
      "type": "function"
    },
    {
      "constant": true,
      "inputs": [],
      "name": "owner",
      "outputs": [
        {
          "internalType": "address",
          "name": "",
          "type": "address"
        }
      ],
      "payable": false,
      "stateMutability": "view",
      "type": "function"
    },
    {
      "constant": true,
      "inputs": [
        {
          "internalType": "uint256",
          "name": "",
          "type": "uint256"
        }
      ],
      "name": "papers",
      "outputs": [
        {
          "internalType": "address",
          "name": "sender",
          "type": "address"
        },
        {
          "internalType": "string",
          "name": "content",
          "type": "string"
        },
        {
          "internalType": "uint256",
          "name": "timestamp",
          "type": "uint256"
        }
      ],
      "payable": false,
      "stateMutability": "view",
      "type": "function"
    },
    {
      "constant": true,
      "inputs": [],
      "name": "price",
      "outputs": [
        {
          "internalType": "uint256",
          "name": "",
          "type": "uint256"
        }
      ],
      "payable": false,
      "stateMutability": "view",
      "type": "function"
    },
    {
      "constant": false,
      "inputs": [
        {
          "internalType": "string",
          "name": "_hashContent",
          "type": "string"
        }
      ],
      "name": "saveNewPaper",
      "outputs": [],
      "payable": true,
      "stateMutability": "payable",
      "type": "function"
    },
    {
      "constant": true,
      "inputs": [
        {
          "internalType": "uint256",
          "name": "_id",
          "type": "uint256"
        }
      ],
      "name": "getPaperByID",
      "outputs": [
        {
          "internalType": "address",
          "name": "hashSender",
          "type": "address"
        },
        {
          "internalType": "string",
          "name": "hashContent",
          "type": "string"
        },
        {
          "internalType": "uint256",
          "name": "hashTimestamp",
          "type": "uint256"
        },
        {
          "internalType": "uint256",
          "name": "hashNumVersions",
          "type": "uint256"
        }
      ],
      "payable": false,
      "stateMutability": "view",
      "type": "function"
    },
    {
      "constant": true,
      "inputs": [],
      "name": "getLastPaperId",
      "outputs": [
        {
          "internalType": "uint256",
          "name": "_lastPaperId",
          "type": "uint256"
        }
      ],
      "payable": false,
      "stateMutability": "view",
      "type": "function"
    }
  ],
  "bytecode": "0x608060405234801561001057600080fd5b50604051610a12380380610a128339818101604052602081101561003357600080fd5b81019080805190602001909291905050506000811161005157600080fd5b33600160006101000a81548173ffffffffffffffffffffffffffffffffffffffff021916908373ffffffffffffffffffffffffffffffffffffffff16021790555080600381905550600060028190555050610961806100b16000396000f3fe6080604052600436106100705760003560e01c80635e775a271161004e5780635e775a27146101865780638da5cb5b14610274578063a035b1fe146102cb578063aa5a5a68146102f657610070565b8063033c5dd9146100755780631bc02468146100a0578063237fc2fb146100cb575b600080fd5b34801561008157600080fd5b5061008a6103eb565b6040518082815260200191505060405180910390f35b3480156100ac57600080fd5b506100b56103f5565b6040518082815260200191505060405180910390f35b610184600480360360208110156100e157600080fd5b81019080803590602001906401000000008111156100fe57600080fd5b82018360208201111561011057600080fd5b8035906020019184600183028401116401000000008311171561013257600080fd5b91908080601f016020809104026020016040519081016040528093929190818152602001838380828437600081840152601f19601f8201169050808301925050505050505091929192905050506103fb565b005b34801561019257600080fd5b506101bf600480360360208110156101a957600080fd5b8101908080359060200190929190505050610559565b604051808473ffffffffffffffffffffffffffffffffffffffff1673ffffffffffffffffffffffffffffffffffffffff16815260200180602001838152602001828103825284818151815260200191508051906020019080838360005b8381101561023757808201518184015260208101905061021c565b50505050905090810190601f1680156102645780820380516001836020036101000a031916815260200191505b5094505050505060405180910390f35b34801561028057600080fd5b5061028961063b565b604051808273ffffffffffffffffffffffffffffffffffffffff1673ffffffffffffffffffffffffffffffffffffffff16815260200191505060405180910390f35b3480156102d757600080fd5b506102e0610661565b6040518082815260200191505060405180910390f35b34801561030257600080fd5b5061032f6004803603602081101561031957600080fd5b8101908080359060200190929190505050610667565b604051808573ffffffffffffffffffffffffffffffffffffffff1673ffffffffffffffffffffffffffffffffffffffff16815260200180602001848152602001838152602001828103825285818151815260200191508051906020019080838360005b838110156103ad578082015181840152602081019050610392565b50505050905090810190601f1680156103da5780820380516001836020036101000a031916815260200191505b509550505050505060405180910390f35b6000600254905090565b60025481565b60035434101561040a57600080fd5b600061041582610793565b905060008082815260200190815260200160002060000160009054906101000a900473ffffffffffffffffffffffffffffffffffffffff1673ffffffffffffffffffffffffffffffffffffffff167f693c9fe145cafe7e9fab7b48bf81d2a79bb9ee5005fbe7eed0770bcc767cae10826000808581526020019081526020016000206001016000808681526020019081526020016000206002015460405180848152602001806020018381526020018281038252848181546001816001161561010002031660029004815260200191508054600181600116156101000203166002900480156105455780601f1061051a57610100808354040283529160200191610545565b820191906000526020600020905b81548152906001019060200180831161052857829003601f168201915b505094505050505060405180910390a25050565b60006020528060005260406000206000915090508060000160009054906101000a900473ffffffffffffffffffffffffffffffffffffffff1690806001018054600181600116156101000203166002900480601f01602080910402602001604051908101604052809291908181526020018280546001816001161561010002031660029004801561062b5780601f106106005761010080835404028352916020019161062b565b820191906000526020600020905b81548152906001019060200180831161060e57829003601f168201915b5050505050908060020154905083565b600160009054906101000a900473ffffffffffffffffffffffffffffffffffffffff1681565b60035481565b6000606060008060008086815260200190815260200160002060000160009054906101000a900473ffffffffffffffffffffffffffffffffffffffff166000808781526020019081526020016000206001016000808881526020019081526020016000206002015460008089815260200190815260200160002060030180549050828054600181600116156101000203166002900480601f01602080910402602001604051908101604052809291908181526020018280546001816001161561010002031660029004801561077d5780601f106107525761010080835404028352916020019161077d565b820191906000526020600020905b81548152906001019060200180831161076057829003601f168201915b5050505050925093509350935093509193509193565b60008060026000815460010191905081905590503360008083815260200190815260200160002060000160006101000a81548173ffffffffffffffffffffffffffffffffffffffff021916908373ffffffffffffffffffffffffffffffffffffffff160217905550826000808381526020019081526020016000206001019080519060200190610824929190610887565b50426000808381526020019081526020016000206002018190555060008082815260200190815260200160002060030181908060018154018082558091505090600182039060005260206000200160009091929091909150555080915050919050565b828054600181600116156101000203166002900490600052602060002090601f016020900481019282601f106108c857805160ff19168380011785556108f6565b828001600101855582156108f6579182015b828111156108f55782518255916020019190600101906108da565b5b5090506109039190610907565b5090565b61092991905b8082111561092557600081600090555060010161090d565b5090565b9056fea265627a7a723158207512be5cde8708e8b276a271d1e7e56d8e202c6f3d22501a08a03048b7fbf52364736f6c63430005100032",
  "source": "pragma solidity >=0.4.22 <0.8.0;\n\ncontract Publications {\n\n    //Eventos\n    event NewPaperStored(address indexed _hashSender, uint _hashId, string _hashContent, uint timestamp);\n    event Withdrawn(address indexed _hashSender, uint amount);\n\n    //Estructura\n    struct Paper {\n        // Direccion del remitente\n        address sender;\n        // Hash del Texto\n        string content;\n        // Creacion de variable de tiempo\n        uint timestamp;\n        // other versions\n        uint[] versions;\n    }\n\n    // Mapeo de Papers\n    mapping(uint => Paper) public papers;\n    // Dueno de Contrato\n    address public owner;\n    // Ultimo HashId de Paper guardado\n    uint public lastPaperId;\n    // Precio del servicio en Wei\n    uint public price;\n\n    //Modificadores\n    modifier onlyOwner() {\n        require(msg.sender == owner);\n        _;\n    }\n\n    //Funciones publicas\n    /**\n    * @dev Constructor de Contrato\n    * @param _price Service precio\n    */\n    constructor(uint _price) public {\n        // verificar si el precio es valido\n        require(_price > 0);\n\n        // Asignacion de dueno\n        owner = msg.sender;\n        // Asignacion de precio\n        price = _price;\n        // inicializacion de id de ultimo paper\n        lastPaperId = 0;\n    }\n\n    // /**\n    // * @dev withdrawBalance - Retiro de saldo acumulado de contrato en ETH\n    // */\n    // function withdrawBalance() onlyOwner public {\n    //     uint amount = address(this).balance;\n    //     address payable ownerp = address(uint160(owner));\n\n    //     // transferencia de balance\n    //     ownerp.transfer(address(this).balance);\n    //     // Log\n    //     emit Withdrawn(owner, amount);\n    // }\n\n    /**\n    * @dev savePaper - Guardar paper\n    * @param _hashContent Contenido Hash\n    */\n    function savePaper(string memory _hashContent) private returns (uint _paperId) {\n        // crear Hash\n        uint paperId = ++lastPaperId;\n        papers[paperId].sender = msg.sender;\n        papers[paperId].content = _hashContent;\n        papers[paperId].timestamp = block.timestamp;\n        papers[paperId].versions.push(paperId);\n\n        return(paperId);\n    }\n\n    /**\n    * @dev saveNewPaper - guardar Nuevo Paper\n    * @param _hashContent Hash Contenido\n    */\n    function saveNewPaper(string memory _hashContent) payable public {\n        // Solo se guarda si se pagó el servicio\n        require(msg.value >= price);\n        \n        // crear Hash\n        uint paperId = savePaper(_hashContent);\n        // Log\n        emit NewPaperStored(papers[paperId].sender, paperId, papers[paperId].content, papers[paperId].timestamp);\n    }\n\n    /**\n    * @dev Encontrar paper por Id\n    * @param _id Hash Id\n    */\n    function getPaperByID(uint _id) view public returns (address hashSender, string memory hashContent, uint hashTimestamp, uint hashNumVersions) {   \n        return (papers[_id].sender,papers[_id].content, papers[_id].timestamp,papers[_id].versions.length); \n    }\n\n    /**\n    * @dev Obtener el ultimo paper\n    */\n    function getLastPaperId() public view returns (uint _lastPaperId) {\n        return lastPaperId;\n    }\n\n}",
  "sourcePath": "/home/fer/UCE/Tesis/dapp/contracts/Publications.sol",
  "compiler": {
    "name": "solc",
    "version": "0.5.16+commit.9c3226ce.Emscripten.clang"
  },
  "schemaVersion": "3.2.4",
  "updatedAt": "2020-09-16T23:02:15.063Z",
  "networkType": "ethereum",
  "devdoc": {
    "methods": {
      "constructor": {
        "details": "Constructor de Contrato",
        "params": {
          "_price": "Service precio"
        }
      },
      "getLastPaperId()": {
        "details": "Obtener el ultimo paper"
      },
      "getPaperByID(uint256)": {
        "details": "Encontrar paper por Id",
        "params": {
          "_id": "Hash Id"
        }
      },
      "saveNewPaper(string)": {
        "details": "saveNewPaper - guardar Nuevo Paper",
        "params": {
          "_hashContent": "Hash Contenido"
        }
      }
    }
  },
  "userdoc": {
    "methods": {}
  }
}