{
  "contractName": "Publications",
  "abi": [
    {
      "inputs": [
        {
          "internalType": "uint256",
          "name": "_price",
          "type": "uint256"
        }
      ],
      "payable": false,
      "stateMutability": "nonpayable",
      "type": "constructor"
    },
    {
      "anonymous": false,
      "inputs": [
        {
          "indexed": true,
          "internalType": "address",
          "name": "_hashSender",
          "type": "address"
        },
        {
          "indexed": false,
          "internalType": "uint256",
          "name": "_hashId",
          "type": "uint256"
        },
        {
          "indexed": false,
          "internalType": "string",
          "name": "_hashContent",
          "type": "string"
        },
        {
          "indexed": false,
          "internalType": "uint256",
          "name": "timestamp",
          "type": "uint256"
        }
      ],
      "name": "NewPaperStored",
      "type": "event"
    },
    {
      "anonymous": false,
      "inputs": [
        {
          "indexed": true,
          "internalType": "address",
          "name": "_hashSender",
          "type": "address"
        },
        {
          "indexed": false,
          "internalType": "uint256",
          "name": "amount",
          "type": "uint256"
        }
      ],
      "name": "Withdrawn",
      "type": "event"
    },
    {
      "constant": true,
      "inputs": [],
      "name": "lastPaperId",
      "outputs": [
        {
          "internalType": "uint256",
          "name": "",
          "type": "uint256"
        }
      ],
      "payable": false,
      "stateMutability": "view",
      "type": "function"
    },
    {
      "constant": true,
      "inputs": [],
      "name": "owner",
      "outputs": [
        {
          "internalType": "address",
          "name": "",
          "type": "address"
        }
      ],
      "payable": false,
      "stateMutability": "view",
      "type": "function"
    },
    {
      "constant": true,
      "inputs": [
        {
          "internalType": "uint256",
          "name": "",
          "type": "uint256"
        }
      ],
      "name": "papers",
      "outputs": [
        {
          "internalType": "address",
          "name": "sender",
          "type": "address"
        },
        {
          "internalType": "string",
          "name": "content",
          "type": "string"
        },
        {
          "internalType": "uint256",
          "name": "timestamp",
          "type": "uint256"
        }
      ],
      "payable": false,
      "stateMutability": "view",
      "type": "function"
    },
    {
      "constant": true,
      "inputs": [],
      "name": "price",
      "outputs": [
        {
          "internalType": "uint256",
          "name": "",
          "type": "uint256"
        }
      ],
      "payable": false,
      "stateMutability": "view",
      "type": "function"
    },
    {
      "constant": false,
      "inputs": [],
      "name": "withdrawBalance",
      "outputs": [],
      "payable": false,
      "stateMutability": "nonpayable",
      "type": "function"
    },
    {
      "constant": false,
      "inputs": [
        {
          "internalType": "string",
          "name": "_hashContent",
          "type": "string"
        }
      ],
      "name": "saveNewPaper",
      "outputs": [],
      "payable": true,
      "stateMutability": "payable",
      "type": "function"
    },
    {
      "constant": true,
      "inputs": [
        {
          "internalType": "uint256",
          "name": "_id",
          "type": "uint256"
        }
      ],
      "name": "getPaperByID",
      "outputs": [
        {
          "internalType": "address",
          "name": "hashSender",
          "type": "address"
        },
        {
          "internalType": "string",
          "name": "hashContent",
          "type": "string"
        },
        {
          "internalType": "uint256",
          "name": "hashTimestamp",
          "type": "uint256"
        },
        {
          "internalType": "uint256",
          "name": "hashNumVersions",
          "type": "uint256"
        }
      ],
      "payable": false,
      "stateMutability": "view",
      "type": "function"
    },
    {
      "constant": true,
      "inputs": [],
      "name": "getLastPaperId",
      "outputs": [
        {
          "internalType": "uint256",
          "name": "_lastPaperId",
          "type": "uint256"
        }
      ],
      "payable": false,
      "stateMutability": "view",
      "type": "function"
    }
  ],
  "bytecode": "0x608060405234801561001057600080fd5b50604051610b75380380610b758339818101604052602081101561003357600080fd5b81019080805190602001909291905050506000811161005157600080fd5b33600160006101000a81548173ffffffffffffffffffffffffffffffffffffffff021916908373ffffffffffffffffffffffffffffffffffffffff16021790555080600381905550600060028190555050610ac4806100b16000396000f3fe60806040526004361061007b5760003560e01c80635fd8c7101161004e5780635fd8c7101461027f5780638da5cb5b14610296578063a035b1fe146102ed578063aa5a5a68146103185761007b565b8063033c5dd9146100805780631bc02468146100ab578063237fc2fb146100d65780635e775a2714610191575b600080fd5b34801561008c57600080fd5b5061009561040d565b6040518082815260200191505060405180910390f35b3480156100b757600080fd5b506100c0610417565b6040518082815260200191505060405180910390f35b61018f600480360360208110156100ec57600080fd5b810190808035906020019064010000000081111561010957600080fd5b82018360208201111561011b57600080fd5b8035906020019184600183028401116401000000008311171561013d57600080fd5b91908080601f016020809104026020016040519081016040528093929190818152602001838380828437600081840152601f19601f82011690508083019250505050505050919291929050505061041d565b005b34801561019d57600080fd5b506101ca600480360360208110156101b457600080fd5b810190808035906020019092919050505061057b565b604051808473ffffffffffffffffffffffffffffffffffffffff1673ffffffffffffffffffffffffffffffffffffffff16815260200180602001838152602001828103825284818151815260200191508051906020019080838360005b83811015610242578082015181840152602081019050610227565b50505050905090810190601f16801561026f5780820380516001836020036101000a031916815260200191505b5094505050505060405180910390f35b34801561028b57600080fd5b5061029461065d565b005b3480156102a257600080fd5b506102ab61079e565b604051808273ffffffffffffffffffffffffffffffffffffffff1673ffffffffffffffffffffffffffffffffffffffff16815260200191505060405180910390f35b3480156102f957600080fd5b506103026107c4565b6040518082815260200191505060405180910390f35b34801561032457600080fd5b506103516004803603602081101561033b57600080fd5b81019080803590602001909291905050506107ca565b604051808573ffffffffffffffffffffffffffffffffffffffff1673ffffffffffffffffffffffffffffffffffffffff16815260200180602001848152602001838152602001828103825285818151815260200191508051906020019080838360005b838110156103cf5780820151818401526020810190506103b4565b50505050905090810190601f1680156103fc5780820380516001836020036101000a031916815260200191505b509550505050505060405180910390f35b6000600254905090565b60025481565b60035434101561042c57600080fd5b6000610437826108f6565b905060008082815260200190815260200160002060000160009054906101000a900473ffffffffffffffffffffffffffffffffffffffff1673ffffffffffffffffffffffffffffffffffffffff167f693c9fe145cafe7e9fab7b48bf81d2a79bb9ee5005fbe7eed0770bcc767cae10826000808581526020019081526020016000206001016000808681526020019081526020016000206002015460405180848152602001806020018381526020018281038252848181546001816001161561010002031660029004815260200191508054600181600116156101000203166002900480156105675780601f1061053c57610100808354040283529160200191610567565b820191906000526020600020905b81548152906001019060200180831161054a57829003601f168201915b505094505050505060405180910390a25050565b60006020528060005260406000206000915090508060000160009054906101000a900473ffffffffffffffffffffffffffffffffffffffff1690806001018054600181600116156101000203166002900480601f01602080910402602001604051908101604052809291908181526020018280546001816001161561010002031660029004801561064d5780601f106106225761010080835404028352916020019161064d565b820191906000526020600020905b81548152906001019060200180831161063057829003601f168201915b5050505050908060020154905083565b600160009054906101000a900473ffffffffffffffffffffffffffffffffffffffff1673ffffffffffffffffffffffffffffffffffffffff163373ffffffffffffffffffffffffffffffffffffffff16146106b757600080fd5b60004790506000600160009054906101000a900473ffffffffffffffffffffffffffffffffffffffff1690508073ffffffffffffffffffffffffffffffffffffffff166108fc479081150290604051600060405180830381858888f19350505050158015610729573d6000803e3d6000fd5b50600160009054906101000a900473ffffffffffffffffffffffffffffffffffffffff1673ffffffffffffffffffffffffffffffffffffffff167f7084f5476618d8e60b11ef0d7d3f06914655adb8793e28ff7f018d4c76d505d5836040518082815260200191505060405180910390a25050565b600160009054906101000a900473ffffffffffffffffffffffffffffffffffffffff1681565b60035481565b6000606060008060008086815260200190815260200160002060000160009054906101000a900473ffffffffffffffffffffffffffffffffffffffff166000808781526020019081526020016000206001016000808881526020019081526020016000206002015460008089815260200190815260200160002060030180549050828054600181600116156101000203166002900480601f0160208091040260200160405190810160405280929190818152602001828054600181600116156101000203166002900480156108e05780601f106108b5576101008083540402835291602001916108e0565b820191906000526020600020905b8154815290600101906020018083116108c357829003601f168201915b5050505050925093509350935093509193509193565b60008060026000815460010191905081905590503360008083815260200190815260200160002060000160006101000a81548173ffffffffffffffffffffffffffffffffffffffff021916908373ffffffffffffffffffffffffffffffffffffffff1602179055508260008083815260200190815260200160002060010190805190602001906109879291906109ea565b50426000808381526020019081526020016000206002018190555060008082815260200190815260200160002060030181908060018154018082558091505090600182039060005260206000200160009091929091909150555080915050919050565b828054600181600116156101000203166002900490600052602060002090601f016020900481019282601f10610a2b57805160ff1916838001178555610a59565b82800160010185558215610a59579182015b82811115610a58578251825591602001919060010190610a3d565b5b509050610a669190610a6a565b5090565b610a8c91905b80821115610a88576000816000905550600101610a70565b5090565b9056fea265627a7a72315820cdabb098cecc5c6c93a9b3730e003a7c0214d997e631f00be6cb233df17ff54c64736f6c63430005100032",
  "source": "pragma solidity >=0.4.22 <0.8.0;\n\ncontract Publications {\n\n    //Eventos\n    event NewPaperStored(address indexed _hashSender, uint _hashId, string _hashContent, uint timestamp);\n    event Withdrawn(address indexed _hashSender, uint amount);\n\n    //Estructura\n    struct Paper {\n        // Direccion del remitente\n        address sender;\n        // Hash del Texto\n        string content;\n        // Creacion de variable de tiempo\n        uint timestamp;\n        // other versions\n        uint[] versions;\n    }\n\n    // Mapeo de Papers\n    mapping(uint => Paper) public papers;\n    // Dueno de Contrato\n    address public owner;\n    // Ultimo HashId de Paper guardado\n    uint public lastPaperId;\n    // Precio del servicio en Wei\n    uint public price;\n\n    //Modificadores\n    modifier onlyOwner() {\n        require(msg.sender == owner);\n        _;\n    }\n\n    //Funciones publicas\n    /**\n    * @dev Constructor de Contrato\n    * @param _price Service precio\n    */\n    constructor(uint _price) public {\n        // verificar si el precio es valido\n        require(_price > 0);\n\n        // Asignacion de dueno\n        owner = msg.sender;\n        // Asignacion de precio\n        price = _price;\n        // inicializacion de id de ultimo paper\n        lastPaperId = 0;\n    }\n\n    /**\n    * @dev withdrawBalance - Retiro de saldo acumulado de contrato en ETH\n    */\n    function withdrawBalance() onlyOwner public {\n        uint amount = address(this).balance;\n        address payable ownerp = address(uint160(owner));\n\n        // transferencia de balance\n        ownerp.transfer(address(this).balance);\n        // Log\n        emit Withdrawn(owner, amount);\n    }\n\n    /**\n    * @dev savePaper - Guardar paper\n    * @param _hashContent Contenido Hash\n    */\n    function savePaper(string memory _hashContent) private returns (uint _paperId) {\n        // crear Hash\n        uint paperId = ++lastPaperId;\n        papers[paperId].sender = msg.sender;\n        papers[paperId].content = _hashContent;\n        papers[paperId].timestamp = block.timestamp;\n        papers[paperId].versions.push(paperId);\n\n        return(paperId);\n    }\n\n    /**\n    * @dev saveNewPaper - guardar Nuevo Paper\n    * @param _hashContent Hash Contenido\n    */\n    function saveNewPaper(string memory _hashContent) payable public {\n        // Solo se guarda si se pagó el servicio\n        require(msg.value >= price);\n        \n        // crear Hash\n        uint paperId = savePaper(_hashContent);\n        // Log\n        emit NewPaperStored(papers[paperId].sender, paperId, papers[paperId].content, papers[paperId].timestamp);\n    }\n\n    /**\n    * @dev Encontrar paper por Id\n    * @param _id Hash Id\n    */\n    function getPaperByID(uint _id) view public returns (address hashSender, string memory hashContent, uint hashTimestamp, uint hashNumVersions) {   \n        return (papers[_id].sender,papers[_id].content, papers[_id].timestamp,papers[_id].versions.length); \n    }\n\n    /**\n    * @dev Obtener el ultimo paper\n    */\n    function getLastPaperId() public view returns (uint _lastPaperId) {\n        return lastPaperId;\n    }\n\n}",
  "sourcePath": "/home/fer/UCE/Tesis/dapp/contracts/Publications.sol",
  "compiler": {
    "name": "solc",
    "version": "0.5.16+commit.9c3226ce.Emscripten.clang"
  },
  "schemaVersion": "3.2.4",
  "updatedAt": "2020-09-16T05:47:05.721Z",
  "networkType": "ethereum",
  "devdoc": {
    "methods": {
      "constructor": {
        "details": "Constructor de Contrato",
        "params": {
          "_price": "Service precio"
        }
      },
      "getLastPaperId()": {
        "details": "Obtener el ultimo paper"
      },
      "getPaperByID(uint256)": {
        "details": "Encontrar paper por Id",
        "params": {
          "_id": "Hash Id"
        }
      },
      "saveNewPaper(string)": {
        "details": "saveNewPaper - guardar Nuevo Paper",
        "params": {
          "_hashContent": "Hash Contenido"
        }
      },
      "withdrawBalance()": {
        "details": "withdrawBalance - Retiro de saldo acumulado de contrato en ETH"
      }
    }
  },
  "userdoc": {
    "methods": {}
  }
}