{
  "contractName": "Publications",
  "abi": [
    {
      "inputs": [
        {
          "internalType": "uint256",
          "name": "_price",
          "type": "uint256"
        }
      ],
      "payable": false,
      "stateMutability": "nonpayable",
      "type": "constructor"
    },
    {
      "anonymous": false,
      "inputs": [
        {
          "indexed": true,
          "internalType": "address",
          "name": "_hashSender",
          "type": "address"
        },
        {
          "indexed": false,
          "internalType": "uint256",
          "name": "_hashId",
          "type": "uint256"
        },
        {
          "indexed": false,
          "internalType": "string",
          "name": "_hashContent",
          "type": "string"
        },
        {
          "indexed": false,
          "internalType": "uint256",
          "name": "timestamp",
          "type": "uint256"
        }
      ],
      "name": "NewPaperStored",
      "type": "event"
    },
    {
      "constant": true,
      "inputs": [],
      "name": "lastPaperId",
      "outputs": [
        {
          "internalType": "uint256",
          "name": "",
          "type": "uint256"
        }
      ],
      "payable": false,
      "stateMutability": "view",
      "type": "function"
    },
    {
      "constant": true,
      "inputs": [],
      "name": "owner",
      "outputs": [
        {
          "internalType": "address",
          "name": "",
          "type": "address"
        }
      ],
      "payable": false,
      "stateMutability": "view",
      "type": "function"
    },
    {
      "constant": true,
      "inputs": [
        {
          "internalType": "uint256",
          "name": "",
          "type": "uint256"
        }
      ],
      "name": "papers",
      "outputs": [
        {
          "internalType": "address",
          "name": "sender",
          "type": "address"
        },
        {
          "internalType": "string",
          "name": "content",
          "type": "string"
        },
        {
          "internalType": "uint256",
          "name": "timestamp",
          "type": "uint256"
        }
      ],
      "payable": false,
      "stateMutability": "view",
      "type": "function"
    },
    {
      "constant": true,
      "inputs": [],
      "name": "price",
      "outputs": [
        {
          "internalType": "uint256",
          "name": "",
          "type": "uint256"
        }
      ],
      "payable": false,
      "stateMutability": "view",
      "type": "function"
    },
    {
      "constant": false,
      "inputs": [
        {
          "internalType": "string",
          "name": "_hashContent",
          "type": "string"
        }
      ],
      "name": "saveNewPaper",
      "outputs": [],
      "payable": true,
      "stateMutability": "payable",
      "type": "function"
    },
    {
      "constant": true,
      "inputs": [
        {
          "internalType": "uint256",
          "name": "_id",
          "type": "uint256"
        }
      ],
      "name": "getPaperByID",
      "outputs": [
        {
          "internalType": "address",
          "name": "hashSender",
          "type": "address"
        },
        {
          "internalType": "string",
          "name": "hashContent",
          "type": "string"
        },
        {
          "internalType": "uint256",
          "name": "hashTimestamp",
          "type": "uint256"
        }
      ],
      "payable": false,
      "stateMutability": "view",
      "type": "function"
    },
    {
      "constant": true,
      "inputs": [],
      "name": "getLastPaperId",
      "outputs": [
        {
          "internalType": "uint256",
          "name": "_lastPaperId",
          "type": "uint256"
        }
      ],
      "payable": false,
      "stateMutability": "view",
      "type": "function"
    }
  ],
  "bytecode": "0x608060405234801561001057600080fd5b506040516109b03803806109b08339818101604052602081101561003357600080fd5b81019080805190602001909291905050506000811161005157600080fd5b33600160006101000a81548173ffffffffffffffffffffffffffffffffffffffff021916908373ffffffffffffffffffffffffffffffffffffffff160217905550806003819055506000600281905550506108ff806100b16000396000f3fe6080604052600436106100705760003560e01c80635e775a271161004e5780635e775a27146101865780638da5cb5b14610274578063a035b1fe146102cb578063aa5a5a68146102f657610070565b8063033c5dd9146100755780631bc02468146100a0578063237fc2fb146100cb575b600080fd5b34801561008157600080fd5b5061008a6103e4565b6040518082815260200191505060405180910390f35b3480156100ac57600080fd5b506100b56103ee565b6040518082815260200191505060405180910390f35b610184600480360360208110156100e157600080fd5b81019080803590602001906401000000008111156100fe57600080fd5b82018360208201111561011057600080fd5b8035906020019184600183028401116401000000008311171561013257600080fd5b91908080601f016020809104026020016040519081016040528093929190818152602001838380828437600081840152601f19601f8201169050808301925050505050505091929192905050506103f4565b005b34801561019257600080fd5b506101bf600480360360208110156101a957600080fd5b8101908080359060200190929190505050610552565b604051808473ffffffffffffffffffffffffffffffffffffffff1673ffffffffffffffffffffffffffffffffffffffff16815260200180602001838152602001828103825284818151815260200191508051906020019080838360005b8381101561023757808201518184015260208101905061021c565b50505050905090810190601f1680156102645780820380516001836020036101000a031916815260200191505b5094505050505060405180910390f35b34801561028057600080fd5b50610289610634565b604051808273ffffffffffffffffffffffffffffffffffffffff1673ffffffffffffffffffffffffffffffffffffffff16815260200191505060405180910390f35b3480156102d757600080fd5b506102e061065a565b6040518082815260200191505060405180910390f35b34801561030257600080fd5b5061032f6004803603602081101561031957600080fd5b8101908080359060200190929190505050610660565b604051808473ffffffffffffffffffffffffffffffffffffffff1673ffffffffffffffffffffffffffffffffffffffff16815260200180602001838152602001828103825284818151815260200191508051906020019080838360005b838110156103a757808201518184015260208101905061038c565b50505050905090810190601f1680156103d45780820380516001836020036101000a031916815260200191505b5094505050505060405180910390f35b6000600254905090565b60025481565b60035434101561040357600080fd5b600061040e82610770565b905060008082815260200190815260200160002060000160009054906101000a900473ffffffffffffffffffffffffffffffffffffffff1673ffffffffffffffffffffffffffffffffffffffff167f693c9fe145cafe7e9fab7b48bf81d2a79bb9ee5005fbe7eed0770bcc767cae108260008085815260200190815260200160002060010160008086815260200190815260200160002060020154604051808481526020018060200183815260200182810382528481815460018160011615610100020316600290048152602001915080546001816001161561010002031660029004801561053e5780601f106105135761010080835404028352916020019161053e565b820191906000526020600020905b81548152906001019060200180831161052157829003601f168201915b505094505050505060405180910390a25050565b60006020528060005260406000206000915090508060000160009054906101000a900473ffffffffffffffffffffffffffffffffffffffff1690806001018054600181600116156101000203166002900480601f0160208091040260200160405190810160405280929190818152602001828054600181600116156101000203166002900480156106245780601f106105f957610100808354040283529160200191610624565b820191906000526020600020905b81548152906001019060200180831161060757829003601f168201915b5050505050908060020154905083565b600160009054906101000a900473ffffffffffffffffffffffffffffffffffffffff1681565b60035481565b60006060600080600085815260200190815260200160002060000160009054906101000a900473ffffffffffffffffffffffffffffffffffffffff1660008086815260200190815260200160002060010160008087815260200190815260200160002060020154818054600181600116156101000203166002900480601f01602080910402602001604051908101604052809291908181526020018280546001816001161561010002031660029004801561075c5780601f106107315761010080835404028352916020019161075c565b820191906000526020600020905b81548152906001019060200180831161073f57829003601f168201915b505050505091509250925092509193909250565b60008060026000815460010191905081905590503360008083815260200190815260200160002060000160006101000a81548173ffffffffffffffffffffffffffffffffffffffff021916908373ffffffffffffffffffffffffffffffffffffffff160217905550826000808381526020019081526020016000206001019080519060200190610801929190610825565b50426000808381526020019081526020016000206002018190555080915050919050565b828054600181600116156101000203166002900490600052602060002090601f016020900481019282601f1061086657805160ff1916838001178555610894565b82800160010185558215610894579182015b82811115610893578251825591602001919060010190610878565b5b5090506108a191906108a5565b5090565b6108c791905b808211156108c35760008160009055506001016108ab565b5090565b9056fea265627a7a72315820400a145d11078aa20bee82bbdaef6a77aa4f7f81d7dec99f0ce771ae5ff5ba5e64736f6c63430005100032",
  "source": "pragma solidity >=0.4.22 <0.8.0;\n\ncontract Publications {\n\n    //Eventos\n    event NewPaperStored(address indexed _hashSender, uint _hashId, string _hashContent, uint timestamp);\n\n    //Estructura\n    struct Paper {\n        // Direccion del remitente\n        address sender;\n        // Hash del Texto\n        string content;\n        // Creacion de variable de tiempo\n        uint timestamp;\n    }\n\n    // Mapeo de Papers\n    mapping(uint => Paper) public papers;\n    // Dueno de Contrato\n    address public owner;\n    // Ultimo HashId de Paper guardado\n    uint public lastPaperId;\n    // Precio del servicio en Wei\n    uint public price;\n\n    //Modificadores\n    modifier onlyOwner() {\n        require(msg.sender == owner);\n        _;\n    }\n\n    //Funciones publicas\n    /**\n    * @dev Constructor de Contrato\n    * @param _price Service precio\n    */\n    constructor(uint _price) public {\n        // verificar si el precio es valido\n        require(_price > 0);\n\n        // Asignacion de dueno\n        owner = msg.sender;\n        // Asignacion de precio\n        price = _price;\n        // inicializacion de id de ultimo paper\n        lastPaperId = 0;\n    }\n\n    /**\n    * @dev savePaper - Guardar paper\n    * @param _hashContent Contenido Hash\n    */\n    function savePaper(string memory _hashContent) private returns (uint _paperId) {\n        // crear Hash\n        uint paperId = ++lastPaperId;\n        papers[paperId].sender = msg.sender;\n        papers[paperId].content = _hashContent;\n        papers[paperId].timestamp = block.timestamp;\n\n        return(paperId);\n    }\n\n    /**\n    * @dev saveNewPaper - guardar Nuevo Paper\n    * @param _hashContent Hash Contenido\n    */\n    function saveNewPaper(string memory _hashContent) payable public {\n        // Solo se guarda si se pagó el servicio\n        require(msg.value >= price);\n        \n        // crear Hash\n        uint paperId = savePaper(_hashContent);\n        // Log\n        emit NewPaperStored(papers[paperId].sender, paperId, papers[paperId].content, papers[paperId].timestamp);\n    }\n\n    /**\n    * @dev Encontrar paper por Id\n    * @param _id Hash Id\n    */\n    function getPaperByID(uint _id) view public returns (address hashSender, string memory hashContent, uint hashTimestamp) {   \n        return (papers[_id].sender,papers[_id].content, papers[_id].timestamp); \n    }\n\n    /**\n    * @dev Obtener el ultimo paper\n    */\n    function getLastPaperId() public view returns (uint _lastPaperId) {\n        return lastPaperId;\n    }\n\n}\n",
  "sourcePath": "/home/fer/UCE/Tesis/dapp/contracts/Publications.sol",
  "compiler": {
    "name": "solc",
    "version": "0.5.16+commit.9c3226ce.Emscripten.clang"
  },
  "schemaVersion": "3.2.4",
  "updatedAt": "2020-10-18T18:41:24.674Z",
  "networkType": "ethereum",
  "devdoc": {
    "methods": {
      "constructor": {
        "details": "Constructor de Contrato",
        "params": {
          "_price": "Service precio"
        }
      },
      "getLastPaperId()": {
        "details": "Obtener el ultimo paper"
      },
      "getPaperByID(uint256)": {
        "details": "Encontrar paper por Id",
        "params": {
          "_id": "Hash Id"
        }
      },
      "saveNewPaper(string)": {
        "details": "saveNewPaper - guardar Nuevo Paper",
        "params": {
          "_hashContent": "Hash Contenido"
        }
      }
    }
  },
  "userdoc": {
    "methods": {}
  }
}