{
  "contractName": "Publications",
  "abi": [
    {
      "inputs": [
        {
          "internalType": "uint256",
          "name": "_price",
          "type": "uint256"
        }
      ],
      "payable": false,
      "stateMutability": "nonpayable",
      "type": "constructor"
    },
    {
      "anonymous": false,
      "inputs": [
        {
          "indexed": true,
          "internalType": "address",
          "name": "_hashSender",
          "type": "address"
        },
        {
          "indexed": false,
          "internalType": "uint256",
          "name": "_hashId",
          "type": "uint256"
        },
        {
          "indexed": false,
          "internalType": "string",
          "name": "_hashTitle",
          "type": "string"
        },
        {
          "indexed": false,
          "internalType": "string",
          "name": "_hashFullName",
          "type": "string"
        },
        {
          "indexed": false,
          "internalType": "string",
          "name": "_hashText",
          "type": "string"
        },
        {
          "indexed": false,
          "internalType": "string",
          "name": "_hashContent",
          "type": "string"
        },
        {
          "indexed": false,
          "internalType": "uint256",
          "name": "timestamp",
          "type": "uint256"
        }
      ],
      "name": "DatePaper",
      "type": "event"
    },
    {
      "anonymous": false,
      "inputs": [
        {
          "indexed": true,
          "internalType": "address",
          "name": "_hashSender",
          "type": "address"
        },
        {
          "indexed": false,
          "internalType": "uint256",
          "name": "_hashId",
          "type": "uint256"
        },
        {
          "indexed": false,
          "internalType": "string",
          "name": "_hashContent",
          "type": "string"
        },
        {
          "indexed": false,
          "internalType": "uint256",
          "name": "timestamp",
          "type": "uint256"
        }
      ],
      "name": "NewPaperStored",
      "type": "event"
    },
    {
      "constant": true,
      "inputs": [],
      "name": "lastPaperId",
      "outputs": [
        {
          "internalType": "uint256",
          "name": "",
          "type": "uint256"
        }
      ],
      "payable": false,
      "stateMutability": "view",
      "type": "function"
    },
    {
      "constant": true,
      "inputs": [],
      "name": "owner",
      "outputs": [
        {
          "internalType": "address",
          "name": "",
          "type": "address"
        }
      ],
      "payable": false,
      "stateMutability": "view",
      "type": "function"
    },
    {
      "constant": true,
      "inputs": [
        {
          "internalType": "uint256",
          "name": "",
          "type": "uint256"
        }
      ],
      "name": "papers",
      "outputs": [
        {
          "internalType": "address",
          "name": "sender",
          "type": "address"
        },
        {
          "internalType": "string",
          "name": "content",
          "type": "string"
        },
        {
          "internalType": "uint256",
          "name": "timestamp",
          "type": "uint256"
        }
      ],
      "payable": false,
      "stateMutability": "view",
      "type": "function"
    },
    {
      "constant": true,
      "inputs": [],
      "name": "price",
      "outputs": [
        {
          "internalType": "uint256",
          "name": "",
          "type": "uint256"
        }
      ],
      "payable": false,
      "stateMutability": "view",
      "type": "function"
    },
    {
      "constant": false,
      "inputs": [
        {
          "internalType": "string",
          "name": "_hashTitle",
          "type": "string"
        },
        {
          "internalType": "string",
          "name": "_hashFullName",
          "type": "string"
        },
        {
          "internalType": "string",
          "name": "_hashText",
          "type": "string"
        },
        {
          "internalType": "string",
          "name": "_hashContentX",
          "type": "string"
        },
        {
          "internalType": "string",
          "name": "_hashContent",
          "type": "string"
        }
      ],
      "name": "saveNewPaper",
      "outputs": [],
      "payable": true,
      "stateMutability": "payable",
      "type": "function"
    },
    {
      "constant": false,
      "inputs": [
        {
          "internalType": "string",
          "name": "_hashTitle",
          "type": "string"
        },
        {
          "internalType": "string",
          "name": "_hashFullName",
          "type": "string"
        },
        {
          "internalType": "string",
          "name": "_hashText",
          "type": "string"
        },
        {
          "internalType": "string",
          "name": "_hashContent",
          "type": "string"
        }
      ],
      "name": "datePaper",
      "outputs": [],
      "payable": true,
      "stateMutability": "payable",
      "type": "function"
    },
    {
      "constant": true,
      "inputs": [
        {
          "internalType": "uint256",
          "name": "_id",
          "type": "uint256"
        }
      ],
      "name": "getPaperByID",
      "outputs": [
        {
          "internalType": "address",
          "name": "hashSender",
          "type": "address"
        },
        {
          "internalType": "string",
          "name": "hashContent",
          "type": "string"
        },
        {
          "internalType": "uint256",
          "name": "hashTimestamp",
          "type": "uint256"
        }
      ],
      "payable": false,
      "stateMutability": "view",
      "type": "function"
    },
    {
      "constant": true,
      "inputs": [],
      "name": "getLastPaperId",
      "outputs": [
        {
          "internalType": "uint256",
          "name": "_lastPaperId",
          "type": "uint256"
        }
      ],
      "payable": false,
      "stateMutability": "view",
      "type": "function"
    }
  ],
  "bytecode": "0x608060405234801561001057600080fd5b5060405161135e38038061135e8339818101604052602081101561003357600080fd5b81019080805190602001909291905050506000811161005157600080fd5b33600160006101000a81548173ffffffffffffffffffffffffffffffffffffffff021916908373ffffffffffffffffffffffffffffffffffffffff160217905550806003819055506000600281905550506112ad806100b16000396000f3fe60806040526004361061007b5760003560e01c80638da5cb5b1161004e5780638da5cb5b14610444578063968b81b91461049b578063a035b1fe146107b2578063aa5a5a68146107dd5761007b565b8063033c5dd9146100805780631bc02468146100ab578063381224da146100d65780635e775a2714610356575b600080fd5b34801561008c57600080fd5b506100956108cb565b6040518082815260200191505060405180910390f35b3480156100b757600080fd5b506100c06108d5565b6040518082815260200191505060405180910390f35b610354600480360360808110156100ec57600080fd5b810190808035906020019064010000000081111561010957600080fd5b82018360208201111561011b57600080fd5b8035906020019184600183028401116401000000008311171561013d57600080fd5b91908080601f016020809104026020016040519081016040528093929190818152602001838380828437600081840152601f19601f820116905080830192505050505050509192919290803590602001906401000000008111156101a057600080fd5b8201836020820111156101b257600080fd5b803590602001918460018302840111640100000000831117156101d457600080fd5b91908080601f016020809104026020016040519081016040528093929190818152602001838380828437600081840152601f19601f8201169050808301925050505050505091929192908035906020019064010000000081111561023757600080fd5b82018360208201111561024957600080fd5b8035906020019184600183028401116401000000008311171561026b57600080fd5b91908080601f016020809104026020016040519081016040528093929190818152602001838380828437600081840152601f19601f820116905080830192505050505050509192919290803590602001906401000000008111156102ce57600080fd5b8201836020820111156102e057600080fd5b8035906020019184600183028401116401000000008311171561030257600080fd5b91908080601f016020809104026020016040519081016040528093929190818152602001838380828437600081840152601f19601f8201169050808301925050505050505091929192905050506108db565b005b34801561036257600080fd5b5061038f6004803603602081101561037957600080fd5b8101908080359060200190929190505050610b4a565b604051808473ffffffffffffffffffffffffffffffffffffffff1673ffffffffffffffffffffffffffffffffffffffff16815260200180602001838152602001828103825284818151815260200191508051906020019080838360005b838110156104075780820151818401526020810190506103ec565b50505050905090810190601f1680156104345780820380516001836020036101000a031916815260200191505b5094505050505060405180910390f35b34801561045057600080fd5b50610459610c2c565b604051808273ffffffffffffffffffffffffffffffffffffffff1673ffffffffffffffffffffffffffffffffffffffff16815260200191505060405180910390f35b6107b0600480360360a08110156104b157600080fd5b81019080803590602001906401000000008111156104ce57600080fd5b8201836020820111156104e057600080fd5b8035906020019184600183028401116401000000008311171561050257600080fd5b91908080601f016020809104026020016040519081016040528093929190818152602001838380828437600081840152601f19601f8201169050808301925050505050505091929192908035906020019064010000000081111561056557600080fd5b82018360208201111561057757600080fd5b8035906020019184600183028401116401000000008311171561059957600080fd5b91908080601f016020809104026020016040519081016040528093929190818152602001838380828437600081840152601f19601f820116905080830192505050505050509192919290803590602001906401000000008111156105fc57600080fd5b82018360208201111561060e57600080fd5b8035906020019184600183028401116401000000008311171561063057600080fd5b91908080601f016020809104026020016040519081016040528093929190818152602001838380828437600081840152601f19601f8201169050808301925050505050505091929192908035906020019064010000000081111561069357600080fd5b8201836020820111156106a557600080fd5b803590602001918460018302840111640100000000831117156106c757600080fd5b91908080601f016020809104026020016040519081016040528093929190818152602001838380828437600081840152601f19601f8201169050808301925050505050505091929192908035906020019064010000000081111561072a57600080fd5b82018360208201111561073c57600080fd5b8035906020019184600183028401116401000000008311171561075e57600080fd5b91908080601f016020809104026020016040519081016040528093929190818152602001838380828437600081840152601f19601f820116905080830192505050505050509192919290505050610c52565b005b3480156107be57600080fd5b506107c7611008565b6040518082815260200191505060405180910390f35b3480156107e957600080fd5b506108166004803603602081101561080057600080fd5b810190808035906020019092919050505061100e565b604051808473ffffffffffffffffffffffffffffffffffffffff1673ffffffffffffffffffffffffffffffffffffffff16815260200180602001838152602001828103825284818151815260200191508051906020019080838360005b8381101561088e578082015181840152602081019050610873565b50505050905090810190601f1680156108bb5780820380516001836020036101000a031916815260200191505b5094505050505060405180910390f35b6000600254905090565b60025481565b6000806108e66108cb565b815260200190815260200160002060000160009054906101000a900473ffffffffffffffffffffffffffffffffffffffff1673ffffffffffffffffffffffffffffffffffffffff167fefe3f93d3d999ce8ee2545bf131390dc2a0f28d96a0437c876d46b8b0bee9c6a6109576108cb565b868686866000806109666108cb565b815260200190815260200160002060020154604051808781526020018060200180602001806020018060200186815260200185810385528a818151815260200191508051906020019080838360005b838110156109d05780820151818401526020810190506109b5565b50505050905090810190601f1680156109fd5780820380516001836020036101000a031916815260200191505b50858103845289818151815260200191508051906020019080838360005b83811015610a36578082015181840152602081019050610a1b565b50505050905090810190601f168015610a635780820380516001836020036101000a031916815260200191505b50858103835288818151815260200191508051906020019080838360005b83811015610a9c578082015181840152602081019050610a81565b50505050905090810190601f168015610ac95780820380516001836020036101000a031916815260200191505b50858103825287818151815260200191508051906020019080838360005b83811015610b02578082015181840152602081019050610ae7565b50505050905090810190601f168015610b2f5780820380516001836020036101000a031916815260200191505b509a505050505050505050505060405180910390a250505050565b60006020528060005260406000206000915090508060000160009054906101000a900473ffffffffffffffffffffffffffffffffffffffff1690806001018054600181600116156101000203166002900480601f016020809104026020016040519081016040528092919081815260200182805460018160011615610100020316600290048015610c1c5780601f10610bf157610100808354040283529160200191610c1c565b820191906000526020600020905b815481529060010190602001808311610bff57829003601f168201915b5050505050908060020154905083565b600160009054906101000a900473ffffffffffffffffffffffffffffffffffffffff1681565b600354341015610c6157600080fd5b6000610c6c8261111e565b905060008082815260200190815260200160002060000160009054906101000a900473ffffffffffffffffffffffffffffffffffffffff1673ffffffffffffffffffffffffffffffffffffffff167f693c9fe145cafe7e9fab7b48bf81d2a79bb9ee5005fbe7eed0770bcc767cae1082600080858152602001908152602001600020600101600080868152602001908152602001600020600201546040518084815260200180602001838152602001828103825284818154600181600116156101000203166002900481526020019150805460018160011615610100020316600290048015610d9c5780601f10610d7157610100808354040283529160200191610d9c565b820191906000526020600020905b815481529060010190602001808311610d7f57829003601f168201915b505094505050505060405180910390a260008082815260200190815260200160002060000160009054906101000a900473ffffffffffffffffffffffffffffffffffffffff1673ffffffffffffffffffffffffffffffffffffffff167fefe3f93d3d999ce8ee2545bf131390dc2a0f28d96a0437c876d46b8b0bee9c6a828888888860008089815260200190815260200160002060020154604051808781526020018060200180602001806020018060200186815260200185810385528a818151815260200191508051906020019080838360005b83811015610e8c578082015181840152602081019050610e71565b50505050905090810190601f168015610eb95780820380516001836020036101000a031916815260200191505b50858103845289818151815260200191508051906020019080838360005b83811015610ef2578082015181840152602081019050610ed7565b50505050905090810190601f168015610f1f5780820380516001836020036101000a031916815260200191505b50858103835288818151815260200191508051906020019080838360005b83811015610f58578082015181840152602081019050610f3d565b50505050905090810190601f168015610f855780820380516001836020036101000a031916815260200191505b50858103825287818151815260200191508051906020019080838360005b83811015610fbe578082015181840152602081019050610fa3565b50505050905090810190601f168015610feb5780820380516001836020036101000a031916815260200191505b509a505050505050505050505060405180910390a2505050505050565b60035481565b60006060600080600085815260200190815260200160002060000160009054906101000a900473ffffffffffffffffffffffffffffffffffffffff1660008086815260200190815260200160002060010160008087815260200190815260200160002060020154818054600181600116156101000203166002900480601f01602080910402602001604051908101604052809291908181526020018280546001816001161561010002031660029004801561110a5780601f106110df5761010080835404028352916020019161110a565b820191906000526020600020905b8154815290600101906020018083116110ed57829003601f168201915b505050505091509250925092509193909250565b60008060026000815460010191905081905590503360008083815260200190815260200160002060000160006101000a81548173ffffffffffffffffffffffffffffffffffffffff021916908373ffffffffffffffffffffffffffffffffffffffff1602179055508260008083815260200190815260200160002060010190805190602001906111af9291906111d3565b50426000808381526020019081526020016000206002018190555080915050919050565b828054600181600116156101000203166002900490600052602060002090601f016020900481019282601f1061121457805160ff1916838001178555611242565b82800160010185558215611242579182015b82811115611241578251825591602001919060010190611226565b5b50905061124f9190611253565b5090565b61127591905b80821115611271576000816000905550600101611259565b5090565b9056fea265627a7a72315820a158d681ede4409fdd91a6b78eea91917451db8f511dc6b42d084526f061951964736f6c63430005100032",
  "source": "pragma solidity >=0.4.22 <0.8.0;\n\ncontract Publications {\n\n    //Eventos\n    event NewPaperStored(address indexed _hashSender, uint _hashId, string _hashContent, uint timestamp);\n    event DatePaper(address indexed _hashSender, uint _hashId,string _hashTitle, string _hashFullName, string _hashText, string _hashContent, uint timestamp);\n\n    //Estructura\n    struct Paper {\n        // Direccion del remitente\n        address sender;\n        // Hash del Texto\n        string content;\n        // Creacion de variable de tiempo\n        uint timestamp;\n    }\n\n    // Mapeo de Papers\n    mapping(uint => Paper) public papers;\n    // Dueno de Contrato\n    address public owner;\n    // Ultimo HashId de Paper guardado\n    uint public lastPaperId;\n    // Precio del servicio en Wei\n    uint public price;\n\n    //Modificadores\n    modifier onlyOwner() {\n        require(msg.sender == owner);\n        _;\n    }\n\n    //Funciones publicas\n    /**\n    * @dev Constructor de Contrato\n    * @param _price Service precio\n    */\n    constructor(uint _price) public {\n        // verificar si el precio es valido\n        require(_price > 0);\n\n        // Asignacion de dueno\n        owner = msg.sender;\n        // Asignacion de precio\n        price = _price;\n        // inicializacion de id de ultimo paper\n        lastPaperId = 0;\n    }\n\n    /**\n    * @dev savePaper - Guardar paper\n    * @param _hashContent Contenido Hash\n    */\n    function savePaper(string memory _hashContent) private returns (uint _paperId) {\n        // crear Hash\n        uint paperId = ++lastPaperId;\n        papers[paperId].sender = msg.sender;\n        papers[paperId].content = _hashContent;\n        papers[paperId].timestamp = block.timestamp;\n\n        return(paperId);\n    }\n\n    /**\n    * @dev saveNewPaper - guardar Nuevo Paper\n    * @param _hashContent Hash Contenido\n    */\n    function saveNewPaper(string memory _hashTitle,string memory _hashFullName,string memory _hashText,string memory _hashContentX,string memory _hashContent) payable public {\n        // Solo se guarda si se pagó el servicio\n        require(msg.value >= price);\n        \n        // crear Hash\n        uint paperId = savePaper(_hashContent);\n        // Log\n        emit NewPaperStored(papers[paperId].sender, paperId, papers[paperId].content, papers[paperId].timestamp);\n        emit DatePaper(papers[paperId].sender, paperId, _hashTitle,_hashFullName,_hashText,_hashContentX, papers[paperId].timestamp);\n    }\n\n    /**\n     */\n    function datePaper(string memory _hashTitle,string memory _hashFullName,string memory _hashText,string memory _hashContent) payable public {\n        emit DatePaper(papers[getLastPaperId()].sender, getLastPaperId(), _hashTitle, _hashFullName, _hashText, _hashContent, papers[getLastPaperId()].timestamp);\n    }\n\n\n    /**\n    * @dev Encontrar paper por Id\n    * @param _id Hash Id\n    */\n    function getPaperByID(uint _id) view public returns (address hashSender, string memory hashContent, uint hashTimestamp) {   \n        return (papers[_id].sender,papers[_id].content, papers[_id].timestamp); \n    }\n\n    /**\n    * @dev Obtener el ultimo paper\n    */\n    function getLastPaperId() public view returns (uint _lastPaperId) {\n        return lastPaperId;\n    }\n\n}\n",
  "sourcePath": "/home/fer/UCE/Tesis/dapp/contracts/Publications.sol",
  "compiler": {
    "name": "solc",
    "version": "0.5.16+commit.9c3226ce.Emscripten.clang"
  },
  "schemaVersion": "3.2.4",
  "updatedAt": "2020-11-24T00:04:31.987Z",
  "networkType": "ethereum",
  "devdoc": {
    "methods": {
      "constructor": {
        "details": "Constructor de Contrato",
        "params": {
          "_price": "Service precio"
        }
      },
      "getLastPaperId()": {
        "details": "Obtener el ultimo paper"
      },
      "getPaperByID(uint256)": {
        "details": "Encontrar paper por Id",
        "params": {
          "_id": "Hash Id"
        }
      },
      "saveNewPaper(string,string,string,string,string)": {
        "details": "saveNewPaper - guardar Nuevo Paper",
        "params": {
          "_hashContent": "Hash Contenido"
        }
      }
    }
  },
  "userdoc": {
    "methods": {}
  }
}