{
  "contractName": "Publications",
  "abi": [
    {
      "inputs": [
        {
          "internalType": "uint256",
          "name": "_precio",
          "type": "uint256"
        }
      ],
      "payable": false,
      "stateMutability": "nonpayable",
      "type": "constructor"
    },
    {
      "anonymous": false,
      "inputs": [
        {
          "indexed": true,
          "internalType": "address",
          "name": "_hashRemitente",
          "type": "address"
        },
        {
          "indexed": false,
          "internalType": "uint256",
          "name": "_hashId",
          "type": "uint256"
        },
        {
          "indexed": false,
          "internalType": "string",
          "name": "_hashContenido",
          "type": "string"
        },
        {
          "indexed": false,
          "internalType": "uint256",
          "name": "vartiempo",
          "type": "uint256"
        }
      ],
      "name": "NuevoPaperGuardado",
      "type": "event"
    },
    {
      "anonymous": false,
      "inputs": [
        {
          "indexed": true,
          "internalType": "address",
          "name": "_previoDueno",
          "type": "address"
        },
        {
          "indexed": true,
          "internalType": "address",
          "name": "_nuevoDueno",
          "type": "address"
        }
      ],
      "name": "PropiedadTransferida",
      "type": "event"
    },
    {
      "anonymous": false,
      "inputs": [
        {
          "indexed": true,
          "internalType": "address",
          "name": "_hashRemitente",
          "type": "address"
        },
        {
          "indexed": false,
          "internalType": "uint256",
          "name": "cantidad",
          "type": "uint256"
        }
      ],
      "name": "Retiro",
      "type": "event"
    },
    {
      "constant": true,
      "inputs": [],
      "name": "dueno",
      "outputs": [
        {
          "internalType": "address",
          "name": "",
          "type": "address"
        }
      ],
      "payable": false,
      "stateMutability": "view",
      "type": "function"
    },
    {
      "constant": true,
      "inputs": [
        {
          "internalType": "uint256",
          "name": "",
          "type": "uint256"
        }
      ],
      "name": "papers",
      "outputs": [
        {
          "internalType": "address",
          "name": "remitente",
          "type": "address"
        },
        {
          "internalType": "string",
          "name": "contenido",
          "type": "string"
        },
        {
          "internalType": "uint256",
          "name": "vartiempo",
          "type": "uint256"
        }
      ],
      "payable": false,
      "stateMutability": "view",
      "type": "function"
    },
    {
      "constant": true,
      "inputs": [],
      "name": "precio",
      "outputs": [
        {
          "internalType": "uint256",
          "name": "",
          "type": "uint256"
        }
      ],
      "payable": false,
      "stateMutability": "view",
      "type": "function"
    },
    {
      "constant": true,
      "inputs": [],
      "name": "ultimoPaperId",
      "outputs": [
        {
          "internalType": "uint256",
          "name": "",
          "type": "uint256"
        }
      ],
      "payable": false,
      "stateMutability": "view",
      "type": "function"
    },
    {
      "constant": false,
      "inputs": [
        {
          "internalType": "address",
          "name": "_nuevoDueno",
          "type": "address"
        }
      ],
      "name": "TransferirPropiedad",
      "outputs": [],
      "payable": false,
      "stateMutability": "nonpayable",
      "type": "function"
    },
    {
      "constant": false,
      "inputs": [],
      "name": "retiroBalance",
      "outputs": [],
      "payable": false,
      "stateMutability": "nonpayable",
      "type": "function"
    },
    {
      "constant": false,
      "inputs": [
        {
          "internalType": "string",
          "name": "_hashContenido",
          "type": "string"
        }
      ],
      "name": "guardarNuevoPaper",
      "outputs": [],
      "payable": true,
      "stateMutability": "payable",
      "type": "function"
    },
    {
      "constant": true,
      "inputs": [
        {
          "internalType": "uint256",
          "name": "_id",
          "type": "uint256"
        }
      ],
      "name": "getPaperByID",
      "outputs": [
        {
          "internalType": "address",
          "name": "hashSender",
          "type": "address"
        },
        {
          "internalType": "string",
          "name": "hashContent",
          "type": "string"
        },
        {
          "internalType": "uint256",
          "name": "hashTimestamp",
          "type": "uint256"
        }
      ],
      "payable": false,
      "stateMutability": "view",
      "type": "function"
    },
    {
      "constant": true,
      "inputs": [],
      "name": "getLastPaperId",
      "outputs": [
        {
          "internalType": "uint256",
          "name": "_lastPaperId",
          "type": "uint256"
        }
      ],
      "payable": false,
      "stateMutability": "view",
      "type": "function"
    }
  ],
  "bytecode": "0x608060405234801561001057600080fd5b50604051610cc3380380610cc38339818101604052602081101561003357600080fd5b81019080805190602001909291905050506000811161005157600080fd5b33600160006101000a81548173ffffffffffffffffffffffffffffffffffffffff021916908373ffffffffffffffffffffffffffffffffffffffff16021790555080600381905550600060028190555050610c12806100b16000396000f3fe6080604052600436106100865760003560e01c8063a78eaa6f11610059578063a78eaa6f14610226578063aa5a5a6814610251578063c295f3011461033f578063c9755e80146103fa578063fab8d6df1461044b57610086565b8063033c5dd91461008b57806352a07d18146100b65780635e775a271461010d5780639e66e0f3146101fb575b600080fd5b34801561009757600080fd5b506100a0610462565b6040518082815260200191505060405180910390f35b3480156100c257600080fd5b506100cb61046c565b604051808273ffffffffffffffffffffffffffffffffffffffff1673ffffffffffffffffffffffffffffffffffffffff16815260200191505060405180910390f35b34801561011957600080fd5b506101466004803603602081101561013057600080fd5b8101908080359060200190929190505050610492565b604051808473ffffffffffffffffffffffffffffffffffffffff1673ffffffffffffffffffffffffffffffffffffffff16815260200180602001838152602001828103825284818151815260200191508051906020019080838360005b838110156101be5780820151818401526020810190506101a3565b50505050905090810190601f1680156101eb5780820380516001836020036101000a031916815260200191505b5094505050505060405180910390f35b34801561020757600080fd5b50610210610574565b6040518082815260200191505060405180910390f35b34801561023257600080fd5b5061023b61057a565b6040518082815260200191505060405180910390f35b34801561025d57600080fd5b5061028a6004803603602081101561027457600080fd5b8101908080359060200190929190505050610580565b604051808473ffffffffffffffffffffffffffffffffffffffff1673ffffffffffffffffffffffffffffffffffffffff16815260200180602001838152602001828103825284818151815260200191508051906020019080838360005b838110156103025780820151818401526020810190506102e7565b50505050905090810190601f16801561032f5780820380516001836020036101000a031916815260200191505b5094505050505060405180910390f35b6103f86004803603602081101561035557600080fd5b810190808035906020019064010000000081111561037257600080fd5b82018360208201111561038457600080fd5b803590602001918460018302840111640100000000831117156103a657600080fd5b91908080601f016020809104026020016040519081016040528093929190818152602001838380828437600081840152601f19601f820116905080830192505050505050509192919290505050610690565b005b34801561040657600080fd5b506104496004803603602081101561041d57600080fd5b81019080803573ffffffffffffffffffffffffffffffffffffffff1690602001909291905050506107ee565b005b34801561045757600080fd5b50610460610942565b005b6000600254905090565b600160009054906101000a900473ffffffffffffffffffffffffffffffffffffffff1681565b60006020528060005260406000206000915090508060000160009054906101000a900473ffffffffffffffffffffffffffffffffffffffff1690806001018054600181600116156101000203166002900480601f0160208091040260200160405190810160405280929190818152602001828054600181600116156101000203166002900480156105645780601f1061053957610100808354040283529160200191610564565b820191906000526020600020905b81548152906001019060200180831161054757829003601f168201915b5050505050908060020154905083565b60035481565b60025481565b60006060600080600085815260200190815260200160002060000160009054906101000a900473ffffffffffffffffffffffffffffffffffffffff1660008086815260200190815260200160002060010160008087815260200190815260200160002060020154818054600181600116156101000203166002900480601f01602080910402602001604051908101604052809291908181526020018280546001816001161561010002031660029004801561067c5780601f106106515761010080835404028352916020019161067c565b820191906000526020600020905b81548152906001019060200180831161065f57829003601f168201915b505050505091509250925092509193909250565b60035434101561069f57600080fd5b60006106aa82610a83565b905060008082815260200190815260200160002060000160009054906101000a900473ffffffffffffffffffffffffffffffffffffffff1673ffffffffffffffffffffffffffffffffffffffff167fe3b31d96c55ec8b9c590ba4ffa31e9ced1825be561cda9791631fc1cadeb8032826000808581526020019081526020016000206001016000808681526020019081526020016000206002015460405180848152602001806020018381526020018281038252848181546001816001161561010002031660029004815260200191508054600181600116156101000203166002900480156107da5780601f106107af576101008083540402835291602001916107da565b820191906000526020600020905b8154815290600101906020018083116107bd57829003601f168201915b505094505050505060405180910390a25050565b600160009054906101000a900473ffffffffffffffffffffffffffffffffffffffff1673ffffffffffffffffffffffffffffffffffffffff163373ffffffffffffffffffffffffffffffffffffffff161461084857600080fd5b600073ffffffffffffffffffffffffffffffffffffffff168173ffffffffffffffffffffffffffffffffffffffff16141561088257600080fd5b80600160006101000a81548173ffffffffffffffffffffffffffffffffffffffff021916908373ffffffffffffffffffffffffffffffffffffffff1602179055508073ffffffffffffffffffffffffffffffffffffffff16600160009054906101000a900473ffffffffffffffffffffffffffffffffffffffff1673ffffffffffffffffffffffffffffffffffffffff167f9d3750bfe58be6cc7f2e5f4bafe796416b4ac8db3f1fb769b28b47af2313c28b60405160405180910390a350565b600160009054906101000a900473ffffffffffffffffffffffffffffffffffffffff1673ffffffffffffffffffffffffffffffffffffffff163373ffffffffffffffffffffffffffffffffffffffff161461099c57600080fd5b60004790506000600160009054906101000a900473ffffffffffffffffffffffffffffffffffffffff1690508073ffffffffffffffffffffffffffffffffffffffff166108fc479081150290604051600060405180830381858888f19350505050158015610a0e573d6000803e3d6000fd5b50600160009054906101000a900473ffffffffffffffffffffffffffffffffffffffff1673ffffffffffffffffffffffffffffffffffffffff167febdddb82f24ed849145a8f144818f7d383a31047a4a7f30b928c65100f9b8eab836040518082815260200191505060405180910390a25050565b60008060026000815460010191905081905590503360008083815260200190815260200160002060000160006101000a81548173ffffffffffffffffffffffffffffffffffffffff021916908373ffffffffffffffffffffffffffffffffffffffff160217905550826000808381526020019081526020016000206001019080519060200190610b14929190610b38565b50426000808381526020019081526020016000206002018190555080915050919050565b828054600181600116156101000203166002900490600052602060002090601f016020900481019282601f10610b7957805160ff1916838001178555610ba7565b82800160010185558215610ba7579182015b82811115610ba6578251825591602001919060010190610b8b565b5b509050610bb49190610bb8565b5090565b610bda91905b80821115610bd6576000816000905550600101610bbe565b5090565b9056fea265627a7a723158204bb1fc7a6df3b4fed89c3ddbb6520fc4983a86b1614fa51b07be0a616c65474064736f6c63430005100032",
  "source": "pragma solidity >=0.4.22 <0.8.0;\n\ncontract Publications {\n\n    //Eventos\n    event PropiedadTransferida(address indexed _previoDueno, address indexed _nuevoDueno);\n    event NuevoPaperGuardado(address indexed _hashRemitente, uint _hashId, string _hashContenido, uint vartiempo);\n    event Retiro(address indexed _hashRemitente, uint cantidad);\n\n    //Estructura\n    struct Paper {\n        // Direccion remitente\n        address remitente;\n        // Hash contenido\n        string contenido;\n        // Tiempo\n        uint vartiempo;\n    }\n\n    // Mapeo de Papers\n    mapping(uint => Paper) public papers;\n    // Dueno de Contrato\n    address public dueno;\n    // Ultimo Hash Id guardado\n    uint public ultimoPaperId;\n    // Precio del servicio en Wei\n    uint public precio;\n\n    //Modificadores\n    modifier unicoDueno() {\n        require(msg.sender == dueno);\n        _;\n    }\n\n    //Funciones publicas\n    /**\n    * @dev Constructor de Contrato\n    * @param _precio Service precio\n    */\n    constructor(uint _precio) public {\n        // verificar si el precio es valido\n        require(_precio > 0);\n\n        // Asignacio de dueno\n        dueno = msg.sender;\n        // Asignacion de precio\n        precio = _precio;\n        // inicializacion de ids\n        ultimoPaperId = 0;\n    }\n\n    /**\n    * @dev Transferencia de propiedad de contrato\n    * @param _nuevoDueno Direccion de nuevo dueno\n    */\n    function TransferirPropiedad(address _nuevoDueno) unicoDueno public {\n        // check address not null\n        require(_nuevoDueno != address(0));\n\n        // assign new owner\n        dueno = _nuevoDueno;\n\n        // Log\n        emit PropiedadTransferida(dueno, _nuevoDueno);\n    }\n\n    /**\n    * @dev Retiro de saldo acumulado de contrato en eth\n    */\n    function retiroBalance() unicoDueno public {\n        uint cantidad = address(this).balance;\n        address payable duenoa = address(uint160(dueno));\n\n        // transferencia de balance\n        duenoa.transfer(address(this).balance);\n\n        // Log\n        emit Retiro(dueno, cantidad);\n    }\n\n    /**\n    * @dev Guardar nuevo paper\n    * @param _hashContenido COntenido Hash\n    */\n    function guardarPaper(string memory _hashContenido) private returns (uint _paperId) {\n        // crear Hash\n        uint paperId = ++ultimoPaperId;\n        papers[paperId].remitente = msg.sender;\n        papers[paperId].contenido = _hashContenido;\n        papers[paperId].vartiempo = block.timestamp;\n\n        return(paperId);\n    }\n\n    /**\n    * @dev guardarNuevoPaper nuevo hash\n    * @param _hashContenido Hash Contenido\n    */\n    function guardarNuevoPaper(string memory _hashContenido) payable public {\n        // SOlo se guarda si se pago el servicio\n        require(msg.value >= precio);\n\n        // crear Hash\n        uint paperId = guardarPaper(_hashContenido);\n\n        // Log\n        emit NuevoPaperGuardado(papers[paperId].remitente, paperId, papers[paperId].contenido, papers[paperId].vartiempo);\n    }\n\n    /**\n    * @dev Encontrar paper por Id\n    * @param _id Hash Id\n    */\n    function getPaperByID(uint _id) view public returns (address hashSender, string memory hashContent, uint hashTimestamp) {   \n        return (papers[_id].remitente,papers[_id].contenido, papers[_id].vartiempo);\n    }\n\n    /**\n    * @dev Encontrar el ultimo paper\n    */\n    function getLastPaperId() public view returns (uint _lastPaperId) {\n        return ultimoPaperId;\n    }\n\n}",
  "sourcePath": "/home/fer/UCE/Tesis/blockchain-dapp/contracts/Publications.sol",
  "compiler": {
    "name": "solc",
    "version": "0.5.16+commit.9c3226ce.Emscripten.clang"
  },
  "schemaVersion": "3.2.4",
  "updatedAt": "2020-09-10T03:46:08.871Z",
  "devdoc": {
    "methods": {
      "TransferirPropiedad(address)": {
        "details": "Transferencia de propiedad de contrato",
        "params": {
          "_nuevoDueno": "Direccion de nuevo dueno"
        }
      },
      "constructor": {
        "details": "Constructor de Contrato",
        "params": {
          "_precio": "Service precio"
        }
      },
      "getLastPaperId()": {
        "details": "Encontrar el ultimo paper"
      },
      "getPaperByID(uint256)": {
        "details": "Encontrar paper por Id",
        "params": {
          "_id": "Hash Id"
        }
      },
      "guardarNuevoPaper(string)": {
        "details": "guardarNuevoPaper nuevo hash",
        "params": {
          "_hashContenido": "Hash Contenido"
        }
      },
      "retiroBalance()": {
        "details": "Retiro de saldo acumulado de contrato en eth"
      }
    }
  },
  "userdoc": {
    "methods": {}
  }
}